{
  "_format": "hh-sol-artifact-1",
  "contractName": "Ensauth",
  "sourceName": "contracts/Ensauth.sol",
  "abi": [
    {
      "inputs": [
        {
          "internalType": "bytes32",
          "name": "groupnode",
          "type": "bytes32"
        },
        {
          "internalType": "string",
          "name": "roleName",
          "type": "string"
        },
        {
          "internalType": "address",
          "name": "account",
          "type": "address"
        }
      ],
      "name": "assignRole",
      "outputs": [],
      "stateMutability": "nonpayable",
      "type": "function"
    },
    {
      "inputs": [
        {
          "internalType": "bytes32",
          "name": "app",
          "type": "bytes32"
        },
        {
          "internalType": "string",
          "name": "roleName",
          "type": "string"
        },
        {
          "internalType": "address",
          "name": "account",
          "type": "address"
        }
      ],
      "name": "isAuthorized",
      "outputs": [
        {
          "internalType": "bool",
          "name": "",
          "type": "bool"
        }
      ],
      "stateMutability": "pure",
      "type": "function"
    },
    {
      "inputs": [
        {
          "internalType": "address",
          "name": "operator",
          "type": "address"
        },
        {
          "internalType": "address",
          "name": "from",
          "type": "address"
        },
        {
          "internalType": "uint256[]",
          "name": "ids",
          "type": "uint256[]"
        },
        {
          "internalType": "uint256[]",
          "name": "values",
          "type": "uint256[]"
        },
        {
          "internalType": "bytes",
          "name": "data",
          "type": "bytes"
        }
      ],
      "name": "onERC1155BatchReceived",
      "outputs": [
        {
          "internalType": "bytes4",
          "name": "",
          "type": "bytes4"
        }
      ],
      "stateMutability": "nonpayable",
      "type": "function"
    },
    {
      "inputs": [
        {
          "internalType": "address",
          "name": "operator",
          "type": "address"
        },
        {
          "internalType": "address",
          "name": "from",
          "type": "address"
        },
        {
          "internalType": "uint256",
          "name": "id",
          "type": "uint256"
        },
        {
          "internalType": "uint256",
          "name": "value",
          "type": "uint256"
        },
        {
          "internalType": "bytes",
          "name": "data",
          "type": "bytes"
        }
      ],
      "name": "onERC1155Received",
      "outputs": [
        {
          "internalType": "bytes4",
          "name": "",
          "type": "bytes4"
        }
      ],
      "stateMutability": "nonpayable",
      "type": "function"
    },
    {
      "inputs": [
        {
          "internalType": "bytes32",
          "name": "groupnode",
          "type": "bytes32"
        }
      ],
      "name": "registerApplication",
      "outputs": [],
      "stateMutability": "nonpayable",
      "type": "function"
    },
    {
      "inputs": [
        {
          "internalType": "bytes32",
          "name": "groupnode",
          "type": "bytes32"
        },
        {
          "internalType": "string",
          "name": "roleName",
          "type": "string"
        }
      ],
      "name": "registerRole",
      "outputs": [],
      "stateMutability": "nonpayable",
      "type": "function"
    },
    {
      "inputs": [
        {
          "internalType": "bytes32",
          "name": "groupnode",
          "type": "bytes32"
        },
        {
          "internalType": "string",
          "name": "roleName",
          "type": "string"
        },
        {
          "internalType": "address",
          "name": "account",
          "type": "address"
        }
      ],
      "name": "removeRole",
      "outputs": [],
      "stateMutability": "nonpayable",
      "type": "function"
    },
    {
      "inputs": [
        {
          "internalType": "string",
          "name": "name",
          "type": "string"
        },
        {
          "internalType": "string",
          "name": "prefix",
          "type": "string"
        }
      ],
      "name": "startsWith",
      "outputs": [
        {
          "internalType": "bool",
          "name": "",
          "type": "bool"
        }
      ],
      "stateMutability": "pure",
      "type": "function"
    },
    {
      "inputs": [
        {
          "internalType": "bytes4",
          "name": "interfaceId",
          "type": "bytes4"
        }
      ],
      "name": "supportsInterface",
      "outputs": [
        {
          "internalType": "bool",
          "name": "",
          "type": "bool"
        }
      ],
      "stateMutability": "view",
      "type": "function"
    }
  ],
  "bytecode": "0x608060405234801561001057600080fd5b50611775806100206000396000f3fe608060405234801561001057600080fd5b50600436106100935760003560e01c8063aab3392311610066578063aab3392314610130578063adf069ea1461014c578063bc197c811461017c578063e751717e146101ac578063f23a6e61146101c857610093565b806301ffc9a71461009857806317fda146146100c85780631e8cfc93146100e457806360ba604114610114575b600080fd5b6100b260048036038101906100ad9190610c4f565b6101f8565b6040516100bf9190610c97565b60405180910390f35b6100e260048036038101906100dd9190610e8c565b610272565b005b6100fe60048036038101906100f99190610e8c565b6103ef565b60405161010b9190610c97565b60405180910390f35b61012e60048036038101906101299190610e8c565b6103fc565b005b61014a60048036038101906101459190610efb565b6106ad565b005b61016660048036038101906101619190610f28565b6107c2565b6040516101739190610c97565b60405180910390f35b61019660048036038101906101919190611056565b61089a565b6040516101a39190611141565b60405180910390f35b6101c660048036038101906101c1919061115c565b610a2e565b005b6101e260048036038101906101dd91906111ee565b610b63565b6040516101ef9190611141565b60405180910390f35b60007f4e2312e0000000000000000000000000000000000000000000000000000000007bffffffffffffffffffffffffffffffffffffffffffffffffffffffff1916827bffffffffffffffffffffffffffffffffffffffffffffffffffffffff1916148061026b575061026a82610b79565b5b9050919050565b60008084815260200190815260200160002060000160009054906101000a900460ff166102d4576040517f08c379a00000000000000000000000000000000000000000000000000000000081526004016102cb906112e5565b60405180910390fd5b600080848152602001908152602001600020600201826040516102f79190611376565b908152602001604051809103902060000160009054906101000a900460ff16610355576040517f08c379a000000000000000000000000000000000000000000000000000000000815260040161034c906113d9565b60405180910390fd5b600080848152602001908152602001600020600201826040516103789190611376565b9081526020016040518091039020600101819080600181540180825580915050600190039060005260206000200160009091909190916101000a81548173ffffffffffffffffffffffffffffffffffffffff021916908373ffffffffffffffffffffffffffffffffffffffff160217905550505050565b6000600190509392505050565b60008084815260200190815260200160002060000160009054906101000a900460ff1661045e576040517f08c379a0000000000000000000000000000000000000000000000000000000008152600401610455906112e5565b60405180910390fd5b600080848152602001908152602001600020600201826040516104819190611376565b908152602001604051809103902060000160009054906101000a900460ff166104df576040517f08c379a00000000000000000000000000000000000000000000000000000000081526004016104d6906113d9565b60405180910390fd5b6000806000858152602001908152602001600020600201836040516105049190611376565b9081526020016040518091039020905060005b81600101805490508110156106a6578273ffffffffffffffffffffffffffffffffffffffff16826001018281548110610553576105526113f9565b5b9060005260206000200160009054906101000a900473ffffffffffffffffffffffffffffffffffffffff1673ffffffffffffffffffffffffffffffffffffffff16036106995781600101600183600101805490506105b19190611457565b815481106105c2576105c16113f9565b5b9060005260206000200160009054906101000a900473ffffffffffffffffffffffffffffffffffffffff16826001018281548110610603576106026113f9565b5b9060005260206000200160006101000a81548173ffffffffffffffffffffffffffffffffffffffff021916908373ffffffffffffffffffffffffffffffffffffffff1602179055508160010180548061065f5761065e61148b565b5b6001900381819060005260206000200160006101000a81549073ffffffffffffffffffffffffffffffffffffffff021916905590556106a6565b8080600101915050610517565b5050505050565b60008082815260200190815260200160002060000160009054906101000a900460ff1615610710576040517f08c379a000000000000000000000000000000000000000000000000000000000815260040161070790611506565b60405180910390fd5b600160008083815260200190815260200160002060000160006101000a81548160ff02191690831515021790555073231b0ee14048e9dccd1d247744d114a4eb5e8e6373ffffffffffffffffffffffffffffffffffffffff1663d5fa2b0082306040518363ffffffff1660e01b815260040161078d929190611544565b600060405180830381600087803b1580156107a757600080fd5b505af11580156107bb573d6000803e3d6000fd5b5050505050565b60008083905060008390508151815111156107e257600092505050610894565b60005b815181101561088c57818181518110610801576108006113f9565b5b602001015160f81c60f81b7effffffffffffffffffffffffffffffffffffffffffffffffffffffffffffff1916838281518110610841576108406113f9565b5b602001015160f81c60f81b7effffffffffffffffffffffffffffffffffffffffffffffffffffffffffffff19161461087f5760009350505050610894565b80806001019150506107e5565b506001925050505b92915050565b600080600090505b87879050811015610a175760008888838181106108c2576108c16113f9565b5b9050602002013560001b9050600073231b0ee14048e9dccd1d247744d114a4eb5e8e6373ffffffffffffffffffffffffffffffffffffffff1663691f3431836040518263ffffffff1660e01b815260040161091d919061156d565b600060405180830381865afa15801561093a573d6000803e3d6000fd5b505050506040513d6000823e3d601f19601f8201168201806040525081019061096391906115f8565b90506109a4816040518060400160405280600681526020017f67726f75707300000000000000000000000000000000000000000000000000008152506107c2565b6109e3576040517f08c379a00000000000000000000000000000000000000000000000000000000081526004016109da906116b3565b60405180910390fd5b610a088a8a858181106109f9576109f86113f9565b5b9050602002013560001b6106ad565b505080806001019150506108a2565b5063bc197c8160e01b905098975050505050505050565b60008083815260200190815260200160002060000160009054906101000a900460ff16610a90576040517f08c379a0000000000000000000000000000000000000000000000000000000008152600401610a87906112e5565b60405180910390fd5b60008083815260200190815260200160002060020181604051610ab39190611376565b908152602001604051809103902060000160009054906101000a900460ff1615610b12576040517f08c379a0000000000000000000000000000000000000000000000000000000008152600401610b099061171f565b60405180910390fd5b600160008084815260200190815260200160002060020182604051610b379190611376565b908152602001604051809103902060000160006101000a81548160ff0219169083151502179055505050565b600063f23a6e6160e01b90509695505050505050565b60007f01ffc9a7000000000000000000000000000000000000000000000000000000007bffffffffffffffffffffffffffffffffffffffffffffffffffffffff1916827bffffffffffffffffffffffffffffffffffffffffffffffffffffffff1916149050919050565b6000604051905090565b600080fd5b600080fd5b60007fffffffff0000000000000000000000000000000000000000000000000000000082169050919050565b610c2c81610bf7565b8114610c3757600080fd5b50565b600081359050610c4981610c23565b92915050565b600060208284031215610c6557610c64610bed565b5b6000610c7384828501610c3a565b91505092915050565b60008115159050919050565b610c9181610c7c565b82525050565b6000602082019050610cac6000830184610c88565b92915050565b6000819050919050565b610cc581610cb2565b8114610cd057600080fd5b50565b600081359050610ce281610cbc565b92915050565b600080fd5b600080fd5b6000601f19601f8301169050919050565b7f4e487b7100000000000000000000000000000000000000000000000000000000600052604160045260246000fd5b610d3b82610cf2565b810181811067ffffffffffffffff82111715610d5a57610d59610d03565b5b80604052505050565b6000610d6d610be3565b9050610d798282610d32565b919050565b600067ffffffffffffffff821115610d9957610d98610d03565b5b610da282610cf2565b9050602081019050919050565b82818337600083830152505050565b6000610dd1610dcc84610d7e565b610d63565b905082815260208101848484011115610ded57610dec610ced565b5b610df8848285610daf565b509392505050565b600082601f830112610e1557610e14610ce8565b5b8135610e25848260208601610dbe565b91505092915050565b600073ffffffffffffffffffffffffffffffffffffffff82169050919050565b6000610e5982610e2e565b9050919050565b610e6981610e4e565b8114610e7457600080fd5b50565b600081359050610e8681610e60565b92915050565b600080600060608486031215610ea557610ea4610bed565b5b6000610eb386828701610cd3565b935050602084013567ffffffffffffffff811115610ed457610ed3610bf2565b5b610ee086828701610e00565b9250506040610ef186828701610e77565b9150509250925092565b600060208284031215610f1157610f10610bed565b5b6000610f1f84828501610cd3565b91505092915050565b60008060408385031215610f3f57610f3e610bed565b5b600083013567ffffffffffffffff811115610f5d57610f5c610bf2565b5b610f6985828601610e00565b925050602083013567ffffffffffffffff811115610f8a57610f89610bf2565b5b610f9685828601610e00565b9150509250929050565b600080fd5b600080fd5b60008083601f840112610fc057610fbf610ce8565b5b8235905067ffffffffffffffff811115610fdd57610fdc610fa0565b5b602083019150836020820283011115610ff957610ff8610fa5565b5b9250929050565b60008083601f84011261101657611015610ce8565b5b8235905067ffffffffffffffff81111561103357611032610fa0565b5b60208301915083600182028301111561104f5761104e610fa5565b5b9250929050565b60008060008060008060008060a0898b03121561107657611075610bed565b5b60006110848b828c01610e77565b98505060206110958b828c01610e77565b975050604089013567ffffffffffffffff8111156110b6576110b5610bf2565b5b6110c28b828c01610faa565b9650965050606089013567ffffffffffffffff8111156110e5576110e4610bf2565b5b6110f18b828c01610faa565b9450945050608089013567ffffffffffffffff81111561111457611113610bf2565b5b6111208b828c01611000565b92509250509295985092959890939650565b61113b81610bf7565b82525050565b60006020820190506111566000830184611132565b92915050565b6000806040838503121561117357611172610bed565b5b600061118185828601610cd3565b925050602083013567ffffffffffffffff8111156111a2576111a1610bf2565b5b6111ae85828601610e00565b9150509250929050565b6000819050919050565b6111cb816111b8565b81146111d657600080fd5b50565b6000813590506111e8816111c2565b92915050565b60008060008060008060a0878903121561120b5761120a610bed565b5b600061121989828a01610e77565b965050602061122a89828a01610e77565b955050604061123b89828a016111d9565b945050606061124c89828a016111d9565b935050608087013567ffffffffffffffff81111561126d5761126c610bf2565b5b61127989828a01611000565b92509250509295509295509295565b600082825260208201905092915050565b7f4170706c69636174696f6e20646f6573206e6f742065786973742e0000000000600082015250565b60006112cf601b83611288565b91506112da82611299565b602082019050919050565b600060208201905081810360008301526112fe816112c2565b9050919050565b600081519050919050565b600081905092915050565b60005b8381101561133957808201518184015260208101905061131e565b60008484015250505050565b600061135082611305565b61135a8185611310565b935061136a81856020860161131b565b80840191505092915050565b60006113828284611345565b915081905092915050565b7f526f6c6520646f6573206e6f742065786973742e000000000000000000000000600082015250565b60006113c3601483611288565b91506113ce8261138d565b602082019050919050565b600060208201905081810360008301526113f2816113b6565b9050919050565b7f4e487b7100000000000000000000000000000000000000000000000000000000600052603260045260246000fd5b7f4e487b7100000000000000000000000000000000000000000000000000000000600052601160045260246000fd5b6000611462826111b8565b915061146d836111b8565b925082820390508181111561148557611484611428565b5b92915050565b7f4e487b7100000000000000000000000000000000000000000000000000000000600052603160045260246000fd5b7f4170706c69636174696f6e20616c726561647920726567697374657265642e00600082015250565b60006114f0601f83611288565b91506114fb826114ba565b602082019050919050565b6000602082019050818103600083015261151f816114e3565b9050919050565b61152f81610cb2565b82525050565b61153e81610e4e565b82525050565b60006040820190506115596000830185611526565b6115666020830184611535565b9392505050565b60006020820190506115826000830184611526565b92915050565b600061159b61159684610d7e565b610d63565b9050828152602081018484840111156115b7576115b6610ced565b5b6115c284828561131b565b509392505050565b600082601f8301126115df576115de610ce8565b5b81516115ef848260208601611588565b91505092915050565b60006020828403121561160e5761160d610bed565b5b600082015167ffffffffffffffff81111561162c5761162b610bf2565b5b611638848285016115ca565b91505092915050565b7f537562646f6d61696e206d7573742073746172742077697468202767726f757060008201527f7327000000000000000000000000000000000000000000000000000000000000602082015250565b600061169d602283611288565b91506116a882611641565b604082019050919050565b600060208201905081810360008301526116cc81611690565b9050919050565b7f526f6c6520616c7265616479206578697374732e000000000000000000000000600082015250565b6000611709601483611288565b9150611714826116d3565b602082019050919050565b60006020820190508181036000830152611738816116fc565b905091905056fea2646970667358221220489dc2ed32ebe5acb95e61ef583f76920f0990cffde707281781287f062c6c2764736f6c63430008180033",
  "linkReferences": {},
  "deployedLinkReferences": {}
}