{
  "_format": "hh-sol-artifact-1",
  "contractName": "Ensauth",
  "sourceName": "contracts/Ensauth.sol",
  "abi": [
    {
      "inputs": [
        {
          "internalType": "bytes32",
          "name": "groupnode",
          "type": "bytes32"
        },
        {
          "internalType": "string",
          "name": "roleName",
          "type": "string"
        },
        {
          "internalType": "address",
          "name": "account",
          "type": "address"
        }
      ],
      "name": "assignRole",
      "outputs": [],
      "stateMutability": "nonpayable",
      "type": "function"
    },
    {
      "inputs": [
        {
          "internalType": "bytes32",
          "name": "app",
          "type": "bytes32"
        },
        {
          "internalType": "string",
          "name": "roleName",
          "type": "string"
        },
        {
          "internalType": "address",
          "name": "account",
          "type": "address"
        }
      ],
      "name": "isAuthorized",
      "outputs": [
        {
          "internalType": "bool",
          "name": "",
          "type": "bool"
        }
      ],
      "stateMutability": "pure",
      "type": "function"
    },
    {
      "inputs": [
        {
          "internalType": "address",
          "name": "operator",
          "type": "address"
        },
        {
          "internalType": "address",
          "name": "from",
          "type": "address"
        },
        {
          "internalType": "uint256[]",
          "name": "ids",
          "type": "uint256[]"
        },
        {
          "internalType": "uint256[]",
          "name": "values",
          "type": "uint256[]"
        },
        {
          "internalType": "bytes",
          "name": "data",
          "type": "bytes"
        }
      ],
      "name": "onERC1155BatchReceived",
      "outputs": [
        {
          "internalType": "bytes4",
          "name": "",
          "type": "bytes4"
        }
      ],
      "stateMutability": "nonpayable",
      "type": "function"
    },
    {
      "inputs": [
        {
          "internalType": "address",
          "name": "operator",
          "type": "address"
        },
        {
          "internalType": "address",
          "name": "from",
          "type": "address"
        },
        {
          "internalType": "uint256",
          "name": "id",
          "type": "uint256"
        },
        {
          "internalType": "uint256",
          "name": "value",
          "type": "uint256"
        },
        {
          "internalType": "bytes",
          "name": "data",
          "type": "bytes"
        }
      ],
      "name": "onERC1155Received",
      "outputs": [
        {
          "internalType": "bytes4",
          "name": "",
          "type": "bytes4"
        }
      ],
      "stateMutability": "nonpayable",
      "type": "function"
    },
    {
      "inputs": [
        {
          "internalType": "bytes32",
          "name": "groupnode",
          "type": "bytes32"
        }
      ],
      "name": "registerApplication",
      "outputs": [],
      "stateMutability": "nonpayable",
      "type": "function"
    },
    {
      "inputs": [
        {
          "internalType": "bytes32",
          "name": "groupnode",
          "type": "bytes32"
        },
        {
          "internalType": "string",
          "name": "roleName",
          "type": "string"
        }
      ],
      "name": "registerRole",
      "outputs": [],
      "stateMutability": "nonpayable",
      "type": "function"
    },
    {
      "inputs": [
        {
          "internalType": "bytes32",
          "name": "groupnode",
          "type": "bytes32"
        },
        {
          "internalType": "string",
          "name": "roleName",
          "type": "string"
        },
        {
          "internalType": "address",
          "name": "account",
          "type": "address"
        }
      ],
      "name": "removeRole",
      "outputs": [],
      "stateMutability": "nonpayable",
      "type": "function"
    },
    {
      "inputs": [
        {
          "internalType": "string",
          "name": "name",
          "type": "string"
        },
        {
          "internalType": "string",
          "name": "prefix",
          "type": "string"
        }
      ],
      "name": "startsWith",
      "outputs": [
        {
          "internalType": "bool",
          "name": "",
          "type": "bool"
        }
      ],
      "stateMutability": "pure",
      "type": "function"
    },
    {
      "inputs": [
        {
          "internalType": "bytes4",
          "name": "interfaceId",
          "type": "bytes4"
        }
      ],
      "name": "supportsInterface",
      "outputs": [
        {
          "internalType": "bool",
          "name": "",
          "type": "bool"
        }
      ],
      "stateMutability": "view",
      "type": "function"
    }
  ],
  "bytecode": "0x608060405234801561001057600080fd5b5061189f806100206000396000f3fe608060405234801561001057600080fd5b50600436106100935760003560e01c8063aab3392311610066578063aab3392314610130578063adf069ea1461014c578063bc197c811461017c578063e751717e146101ac578063f23a6e61146101c857610093565b806301ffc9a71461009857806317fda146146100c85780631e8cfc93146100e457806360ba604114610114575b600080fd5b6100b260048036038101906100ad9190610d79565b6101f8565b6040516100bf9190610dc1565b60405180910390f35b6100e260048036038101906100dd9190610fb6565b610272565b005b6100fe60048036038101906100f99190610fb6565b6103ef565b60405161010b9190610dc1565b60405180910390f35b61012e60048036038101906101299190610fb6565b6103fc565b005b61014a60048036038101906101459190611025565b6106ad565b005b61016660048036038101906101619190611052565b6107c2565b6040516101739190610dc1565b60405180910390f35b61019660048036038101906101919190611180565b61089a565b6040516101a3919061126b565b60405180910390f35b6101c660048036038101906101c19190611286565b610a2e565b005b6101e260048036038101906101dd9190611318565b610b63565b6040516101ef919061126b565b60405180910390f35b60007f4e2312e0000000000000000000000000000000000000000000000000000000007bffffffffffffffffffffffffffffffffffffffffffffffffffffffff1916827bffffffffffffffffffffffffffffffffffffffffffffffffffffffff1916148061026b575061026a82610ca3565b5b9050919050565b60008084815260200190815260200160002060000160009054906101000a900460ff166102d4576040517f08c379a00000000000000000000000000000000000000000000000000000000081526004016102cb9061140f565b60405180910390fd5b600080848152602001908152602001600020600201826040516102f791906114a0565b908152602001604051809103902060000160009054906101000a900460ff16610355576040517f08c379a000000000000000000000000000000000000000000000000000000000815260040161034c90611503565b60405180910390fd5b6000808481526020019081526020016000206002018260405161037891906114a0565b9081526020016040518091039020600101819080600181540180825580915050600190039060005260206000200160009091909190916101000a81548173ffffffffffffffffffffffffffffffffffffffff021916908373ffffffffffffffffffffffffffffffffffffffff160217905550505050565b6000600190509392505050565b60008084815260200190815260200160002060000160009054906101000a900460ff1661045e576040517f08c379a00000000000000000000000000000000000000000000000000000000081526004016104559061140f565b60405180910390fd5b6000808481526020019081526020016000206002018260405161048191906114a0565b908152602001604051809103902060000160009054906101000a900460ff166104df576040517f08c379a00000000000000000000000000000000000000000000000000000000081526004016104d690611503565b60405180910390fd5b60008060008581526020019081526020016000206002018360405161050491906114a0565b9081526020016040518091039020905060005b81600101805490508110156106a6578273ffffffffffffffffffffffffffffffffffffffff1682600101828154811061055357610552611523565b5b9060005260206000200160009054906101000a900473ffffffffffffffffffffffffffffffffffffffff1673ffffffffffffffffffffffffffffffffffffffff16036106995781600101600183600101805490506105b19190611581565b815481106105c2576105c1611523565b5b9060005260206000200160009054906101000a900473ffffffffffffffffffffffffffffffffffffffff1682600101828154811061060357610602611523565b5b9060005260206000200160006101000a81548173ffffffffffffffffffffffffffffffffffffffff021916908373ffffffffffffffffffffffffffffffffffffffff1602179055508160010180548061065f5761065e6115b5565b5b6001900381819060005260206000200160006101000a81549073ffffffffffffffffffffffffffffffffffffffff021916905590556106a6565b8080600101915050610517565b5050505050565b60008082815260200190815260200160002060000160009054906101000a900460ff1615610710576040517f08c379a000000000000000000000000000000000000000000000000000000000815260040161070790611630565b60405180910390fd5b600160008083815260200190815260200160002060000160006101000a81548160ff02191690831515021790555073231b0ee14048e9dccd1d247744d114a4eb5e8e6373ffffffffffffffffffffffffffffffffffffffff1663d5fa2b0082306040518363ffffffff1660e01b815260040161078d92919061166e565b600060405180830381600087803b1580156107a757600080fd5b505af11580156107bb573d6000803e3d6000fd5b5050505050565b60008083905060008390508151815111156107e257600092505050610894565b60005b815181101561088c5781818151811061080157610800611523565b5b602001015160f81c60f81b7effffffffffffffffffffffffffffffffffffffffffffffffffffffffffffff191683828151811061084157610840611523565b5b602001015160f81c60f81b7effffffffffffffffffffffffffffffffffffffffffffffffffffffffffffff19161461087f5760009350505050610894565b80806001019150506107e5565b506001925050505b92915050565b600080600090505b87879050811015610a175760008888838181106108c2576108c1611523565b5b9050602002013560001b9050600073231b0ee14048e9dccd1d247744d114a4eb5e8e6373ffffffffffffffffffffffffffffffffffffffff1663691f3431836040518263ffffffff1660e01b815260040161091d9190611697565b600060405180830381865afa15801561093a573d6000803e3d6000fd5b505050506040513d6000823e3d601f19601f820116820180604052508101906109639190611722565b90506109a4816040518060400160405280600681526020017f67726f75707300000000000000000000000000000000000000000000000000008152506107c2565b6109e3576040517f08c379a00000000000000000000000000000000000000000000000000000000081526004016109da906117dd565b60405180910390fd5b610a088a8a858181106109f9576109f8611523565b5b9050602002013560001b6106ad565b505080806001019150506108a2565b5063bc197c8160e01b905098975050505050505050565b60008083815260200190815260200160002060000160009054906101000a900460ff16610a90576040517f08c379a0000000000000000000000000000000000000000000000000000000008152600401610a879061140f565b60405180910390fd5b60008083815260200190815260200160002060020181604051610ab391906114a0565b908152602001604051809103902060000160009054906101000a900460ff1615610b12576040517f08c379a0000000000000000000000000000000000000000000000000000000008152600401610b0990611849565b60405180910390fd5b600160008084815260200190815260200160002060020182604051610b3791906114a0565b908152602001604051809103902060000160006101000a81548160ff0219169083151502179055505050565b6000808560001b9050600073231b0ee14048e9dccd1d247744d114a4eb5e8e6373ffffffffffffffffffffffffffffffffffffffff1663691f3431836040518263ffffffff1660e01b8152600401610bbb9190611697565b600060405180830381865afa158015610bd8573d6000803e3d6000fd5b505050506040513d6000823e3d601f19601f82011682018060405250810190610c019190611722565b9050610c42816040518060400160405280600681526020017f67726f75707300000000000000000000000000000000000000000000000000008152506107c2565b610c81576040517f08c379a0000000000000000000000000000000000000000000000000000000008152600401610c78906117dd565b60405180910390fd5b610c8d8760001b6106ad565b63f23a6e6160e01b925050509695505050505050565b60007f01ffc9a7000000000000000000000000000000000000000000000000000000007bffffffffffffffffffffffffffffffffffffffffffffffffffffffff1916827bffffffffffffffffffffffffffffffffffffffffffffffffffffffff1916149050919050565b6000604051905090565b600080fd5b600080fd5b60007fffffffff0000000000000000000000000000000000000000000000000000000082169050919050565b610d5681610d21565b8114610d6157600080fd5b50565b600081359050610d7381610d4d565b92915050565b600060208284031215610d8f57610d8e610d17565b5b6000610d9d84828501610d64565b91505092915050565b60008115159050919050565b610dbb81610da6565b82525050565b6000602082019050610dd66000830184610db2565b92915050565b6000819050919050565b610def81610ddc565b8114610dfa57600080fd5b50565b600081359050610e0c81610de6565b92915050565b600080fd5b600080fd5b6000601f19601f8301169050919050565b7f4e487b7100000000000000000000000000000000000000000000000000000000600052604160045260246000fd5b610e6582610e1c565b810181811067ffffffffffffffff82111715610e8457610e83610e2d565b5b80604052505050565b6000610e97610d0d565b9050610ea38282610e5c565b919050565b600067ffffffffffffffff821115610ec357610ec2610e2d565b5b610ecc82610e1c565b9050602081019050919050565b82818337600083830152505050565b6000610efb610ef684610ea8565b610e8d565b905082815260208101848484011115610f1757610f16610e17565b5b610f22848285610ed9565b509392505050565b600082601f830112610f3f57610f3e610e12565b5b8135610f4f848260208601610ee8565b91505092915050565b600073ffffffffffffffffffffffffffffffffffffffff82169050919050565b6000610f8382610f58565b9050919050565b610f9381610f78565b8114610f9e57600080fd5b50565b600081359050610fb081610f8a565b92915050565b600080600060608486031215610fcf57610fce610d17565b5b6000610fdd86828701610dfd565b935050602084013567ffffffffffffffff811115610ffe57610ffd610d1c565b5b61100a86828701610f2a565b925050604061101b86828701610fa1565b9150509250925092565b60006020828403121561103b5761103a610d17565b5b600061104984828501610dfd565b91505092915050565b6000806040838503121561106957611068610d17565b5b600083013567ffffffffffffffff81111561108757611086610d1c565b5b61109385828601610f2a565b925050602083013567ffffffffffffffff8111156110b4576110b3610d1c565b5b6110c085828601610f2a565b9150509250929050565b600080fd5b600080fd5b60008083601f8401126110ea576110e9610e12565b5b8235905067ffffffffffffffff811115611107576111066110ca565b5b602083019150836020820283011115611123576111226110cf565b5b9250929050565b60008083601f8401126111405761113f610e12565b5b8235905067ffffffffffffffff81111561115d5761115c6110ca565b5b602083019150836001820283011115611179576111786110cf565b5b9250929050565b60008060008060008060008060a0898b0312156111a05761119f610d17565b5b60006111ae8b828c01610fa1565b98505060206111bf8b828c01610fa1565b975050604089013567ffffffffffffffff8111156111e0576111df610d1c565b5b6111ec8b828c016110d4565b9650965050606089013567ffffffffffffffff81111561120f5761120e610d1c565b5b61121b8b828c016110d4565b9450945050608089013567ffffffffffffffff81111561123e5761123d610d1c565b5b61124a8b828c0161112a565b92509250509295985092959890939650565b61126581610d21565b82525050565b6000602082019050611280600083018461125c565b92915050565b6000806040838503121561129d5761129c610d17565b5b60006112ab85828601610dfd565b925050602083013567ffffffffffffffff8111156112cc576112cb610d1c565b5b6112d885828601610f2a565b9150509250929050565b6000819050919050565b6112f5816112e2565b811461130057600080fd5b50565b600081359050611312816112ec565b92915050565b60008060008060008060a0878903121561133557611334610d17565b5b600061134389828a01610fa1565b965050602061135489828a01610fa1565b955050604061136589828a01611303565b945050606061137689828a01611303565b935050608087013567ffffffffffffffff81111561139757611396610d1c565b5b6113a389828a0161112a565b92509250509295509295509295565b600082825260208201905092915050565b7f4170706c69636174696f6e20646f6573206e6f742065786973742e0000000000600082015250565b60006113f9601b836113b2565b9150611404826113c3565b602082019050919050565b60006020820190508181036000830152611428816113ec565b9050919050565b600081519050919050565b600081905092915050565b60005b83811015611463578082015181840152602081019050611448565b60008484015250505050565b600061147a8261142f565b611484818561143a565b9350611494818560208601611445565b80840191505092915050565b60006114ac828461146f565b915081905092915050565b7f526f6c6520646f6573206e6f742065786973742e000000000000000000000000600082015250565b60006114ed6014836113b2565b91506114f8826114b7565b602082019050919050565b6000602082019050818103600083015261151c816114e0565b9050919050565b7f4e487b7100000000000000000000000000000000000000000000000000000000600052603260045260246000fd5b7f4e487b7100000000000000000000000000000000000000000000000000000000600052601160045260246000fd5b600061158c826112e2565b9150611597836112e2565b92508282039050818111156115af576115ae611552565b5b92915050565b7f4e487b7100000000000000000000000000000000000000000000000000000000600052603160045260246000fd5b7f4170706c69636174696f6e20616c726561647920726567697374657265642e00600082015250565b600061161a601f836113b2565b9150611625826115e4565b602082019050919050565b600060208201905081810360008301526116498161160d565b9050919050565b61165981610ddc565b82525050565b61166881610f78565b82525050565b60006040820190506116836000830185611650565b611690602083018461165f565b9392505050565b60006020820190506116ac6000830184611650565b92915050565b60006116c56116c084610ea8565b610e8d565b9050828152602081018484840111156116e1576116e0610e17565b5b6116ec848285611445565b509392505050565b600082601f83011261170957611708610e12565b5b81516117198482602086016116b2565b91505092915050565b60006020828403121561173857611737610d17565b5b600082015167ffffffffffffffff81111561175657611755610d1c565b5b611762848285016116f4565b91505092915050565b7f537562646f6d61696e206d7573742073746172742077697468202767726f757060008201527f7327000000000000000000000000000000000000000000000000000000000000602082015250565b60006117c76022836113b2565b91506117d28261176b565b604082019050919050565b600060208201905081810360008301526117f6816117ba565b9050919050565b7f526f6c6520616c7265616479206578697374732e000000000000000000000000600082015250565b60006118336014836113b2565b915061183e826117fd565b602082019050919050565b6000602082019050818103600083015261186281611826565b905091905056fea2646970667358221220d90d25d6aa54686587f59f0bfee1aef52ada2934b09ffacca77f77be06fdec0364736f6c63430008180033",
  "linkReferences": {},
  "deployedLinkReferences": {}
}