{
  "_format": "hh-sol-artifact-1",
  "contractName": "Ensauth",
  "sourceName": "contracts/Ensauth.sol",
  "abi": [
    {
      "inputs": [],
      "name": "InvalidInitialization",
      "type": "error"
    },
    {
      "inputs": [],
      "name": "NotInitializing",
      "type": "error"
    },
    {
      "inputs": [
        {
          "internalType": "uint256",
          "name": "value",
          "type": "uint256"
        },
        {
          "internalType": "uint256",
          "name": "length",
          "type": "uint256"
        }
      ],
      "name": "StringsInsufficientHexLength",
      "type": "error"
    },
    {
      "anonymous": false,
      "inputs": [
        {
          "indexed": false,
          "internalType": "uint64",
          "name": "version",
          "type": "uint64"
        }
      ],
      "name": "Initialized",
      "type": "event"
    },
    {
      "anonymous": false,
      "inputs": [
        {
          "indexed": true,
          "internalType": "bytes32",
          "name": "node",
          "type": "bytes32"
        },
        {
          "indexed": true,
          "internalType": "string",
          "name": "indexedKey",
          "type": "string"
        },
        {
          "indexed": false,
          "internalType": "string",
          "name": "key",
          "type": "string"
        },
        {
          "indexed": false,
          "internalType": "string",
          "name": "value",
          "type": "string"
        }
      ],
      "name": "TextChanged",
      "type": "event"
    },
    {
      "inputs": [
        {
          "internalType": "bytes32",
          "name": "groupnode",
          "type": "bytes32"
        },
        {
          "internalType": "string",
          "name": "roleName",
          "type": "string"
        },
        {
          "internalType": "address",
          "name": "account",
          "type": "address"
        }
      ],
      "name": "assignRole",
      "outputs": [],
      "stateMutability": "nonpayable",
      "type": "function"
    },
    {
      "inputs": [
        {
          "internalType": "string",
          "name": "a",
          "type": "string"
        },
        {
          "internalType": "string",
          "name": "b",
          "type": "string"
        }
      ],
      "name": "concatenateStrings",
      "outputs": [
        {
          "internalType": "string",
          "name": "",
          "type": "string"
        }
      ],
      "stateMutability": "pure",
      "type": "function"
    },
    {
      "inputs": [
        {
          "internalType": "bytes32",
          "name": "node",
          "type": "bytes32"
        }
      ],
      "name": "constructTextRecordsAndEmitEvent",
      "outputs": [],
      "stateMutability": "nonpayable",
      "type": "function"
    },
    {
      "inputs": [
        {
          "internalType": "uint256",
          "name": "_val",
          "type": "uint256"
        }
      ],
      "name": "initialize",
      "outputs": [],
      "stateMutability": "nonpayable",
      "type": "function"
    },
    {
      "inputs": [
        {
          "internalType": "bytes32",
          "name": "groupnode",
          "type": "bytes32"
        },
        {
          "internalType": "address",
          "name": "account",
          "type": "address"
        }
      ],
      "name": "isAuthorized",
      "outputs": [
        {
          "internalType": "bool",
          "name": "",
          "type": "bool"
        }
      ],
      "stateMutability": "pure",
      "type": "function"
    },
    {
      "inputs": [
        {
          "internalType": "address",
          "name": "operator",
          "type": "address"
        },
        {
          "internalType": "address",
          "name": "from",
          "type": "address"
        },
        {
          "internalType": "uint256[]",
          "name": "ids",
          "type": "uint256[]"
        },
        {
          "internalType": "uint256[]",
          "name": "values",
          "type": "uint256[]"
        },
        {
          "internalType": "bytes",
          "name": "data",
          "type": "bytes"
        }
      ],
      "name": "onERC1155BatchReceived",
      "outputs": [
        {
          "internalType": "bytes4",
          "name": "",
          "type": "bytes4"
        }
      ],
      "stateMutability": "nonpayable",
      "type": "function"
    },
    {
      "inputs": [
        {
          "internalType": "address",
          "name": "operator",
          "type": "address"
        },
        {
          "internalType": "address",
          "name": "from",
          "type": "address"
        },
        {
          "internalType": "uint256",
          "name": "id",
          "type": "uint256"
        },
        {
          "internalType": "uint256",
          "name": "value",
          "type": "uint256"
        },
        {
          "internalType": "bytes",
          "name": "data",
          "type": "bytes"
        }
      ],
      "name": "onERC1155Received",
      "outputs": [
        {
          "internalType": "bytes4",
          "name": "",
          "type": "bytes4"
        }
      ],
      "stateMutability": "nonpayable",
      "type": "function"
    },
    {
      "inputs": [
        {
          "internalType": "bytes32",
          "name": "groupnode",
          "type": "bytes32"
        }
      ],
      "name": "registerApplication",
      "outputs": [],
      "stateMutability": "nonpayable",
      "type": "function"
    },
    {
      "inputs": [
        {
          "internalType": "bytes32",
          "name": "groupnode",
          "type": "bytes32"
        },
        {
          "internalType": "string",
          "name": "roleName",
          "type": "string"
        }
      ],
      "name": "registerRole",
      "outputs": [],
      "stateMutability": "nonpayable",
      "type": "function"
    },
    {
      "inputs": [
        {
          "internalType": "bytes32",
          "name": "groupnode",
          "type": "bytes32"
        },
        {
          "internalType": "string",
          "name": "roleName",
          "type": "string"
        },
        {
          "internalType": "address",
          "name": "account",
          "type": "address"
        }
      ],
      "name": "removeRole",
      "outputs": [],
      "stateMutability": "nonpayable",
      "type": "function"
    },
    {
      "inputs": [
        {
          "internalType": "bytes",
          "name": "name",
          "type": "bytes"
        },
        {
          "internalType": "bytes",
          "name": "prefix",
          "type": "bytes"
        }
      ],
      "name": "startsWith",
      "outputs": [
        {
          "internalType": "bool",
          "name": "",
          "type": "bool"
        }
      ],
      "stateMutability": "pure",
      "type": "function"
    },
    {
      "inputs": [
        {
          "internalType": "bytes4",
          "name": "interfaceId",
          "type": "bytes4"
        }
      ],
      "name": "supportsInterface",
      "outputs": [
        {
          "internalType": "bool",
          "name": "",
          "type": "bool"
        }
      ],
      "stateMutability": "view",
      "type": "function"
    },
    {
      "inputs": [
        {
          "internalType": "bytes32",
          "name": "node",
          "type": "bytes32"
        },
        {
          "internalType": "string",
          "name": "key",
          "type": "string"
        }
      ],
      "name": "text",
      "outputs": [
        {
          "internalType": "string",
          "name": "",
          "type": "string"
        }
      ],
      "stateMutability": "view",
      "type": "function"
    },
    {
      "inputs": [],
      "name": "val",
      "outputs": [
        {
          "internalType": "uint256",
          "name": "",
          "type": "uint256"
        }
      ],
      "stateMutability": "view",
      "type": "function"
    }
  ],
  "bytecode": "0x608060405234801561001057600080fd5b5061377c806100206000396000f3fe608060405234801561001057600080fd5b50600436106100ea5760003560e01c8063956db4651161008c578063bc197c8111610066578063bc197c811461026d578063e751717e1461029d578063f23a6e61146102b9578063fe4b84df146102e9576100ea565b8063956db46514610205578063a13cc9d114610235578063aab3392314610251576100ea565b8063426efa6c116100c8578063426efa6c1461015957806359d1d43c1461018957806360ba6041146101b95780637a36b3ee146101d5576100ea565b806301ffc9a7146100ef57806317fda1461461011f5780633c6bb4361461013b575b600080fd5b61010960048036038101906101049190611de5565b610305565b6040516101169190611e2d565b60405180910390f35b61013960048036038101906101349190612022565b61037f565b005b61014361061c565b60405161015091906120aa565b60405180910390f35b610173600480360381019061016e9190612166565b610622565b6040516101809190611e2d565b60405180910390f35b6101a3600480360381019061019e919061223e565b61076d565b6040516101b0919061231d565b60405180910390f35b6101d360048036038101906101ce9190612022565b610b28565b005b6101ef60048036038101906101ea919061233f565b610e1f565b6040516101fc919061231d565b60405180910390f35b61021f600480360381019061021a91906123b7565b610e51565b60405161022c9190611e2d565b60405180910390f35b61024f600480360381019061024a91906123f7565b610e5d565b005b61026b600480360381019061026691906123f7565b611233565b005b610287600480360381019061028291906124d0565b6113c7565b60405161029491906125bb565b60405180910390f35b6102b760048036038101906102b291906125d6565b611445565b005b6102d360048036038101906102ce919061265e565b611700565b6040516102e091906125bb565b60405180910390f35b61030360048036038101906102fe91906126f8565b611840565b005b60007f4e2312e0000000000000000000000000000000000000000000000000000000007bffffffffffffffffffffffffffffffffffffffffffffffffffffffff1916827bffffffffffffffffffffffffffffffffffffffffffffffffffffffff191614806103785750610377826119cd565b5b9050919050565b60008084815260200190815260200160002060000160009054906101000a900460ff166103e1576040517f08c379a00000000000000000000000000000000000000000000000000000000081526004016103d890612797565b60405180910390fd5b60008060008581526020019081526020016000206003018360405161040691906127f3565b908152602001604051809103902090508060000160009054906101000a900460ff16610467576040517f08c379a000000000000000000000000000000000000000000000000000000000815260040161045e90612856565b60405180910390fd5b8060020160008373ffffffffffffffffffffffffffffffffffffffff1673ffffffffffffffffffffffffffffffffffffffff16815260200190815260200160002060009054906101000a900460ff16156104f6576040517f08c379a00000000000000000000000000000000000000000000000000000000081526004016104ed906128c2565b60405180910390fd5b60016000808681526020019081526020016000206003018460405161051b91906127f3565b908152602001604051809103902060020160008473ffffffffffffffffffffffffffffffffffffffff1673ffffffffffffffffffffffffffffffffffffffff16815260200190815260200160002060006101000a81548160ff02191690831515021790555060006105a38373ffffffffffffffffffffffffffffffffffffffff166014611a37565b9050600080868152602001908152602001600020600301846040516105c891906127f3565b90815260200160405180910390206001018190806001815401808255809150506001900390600052602060002001600090919091909150908161060b9190612aee565b5061061585610e5d565b5050505050565b60015481565b60008251825111156106375760009050610767565b600660f81b7effffffffffffffffffffffffffffffffffffffffffffffffffffffffffffff19168360008151811061067257610671612bc0565b5b602001015160f81c60f81b7effffffffffffffffffffffffffffffffffffffffffffffffffffffffffffff1916146106ad5760009050610767565b60005b8251811015610761578281815181106106cc576106cb612bc0565b5b602001015160f81c60f81b7effffffffffffffffffffffffffffffffffffffffffffffffffffffffffffff1916846001836107079190612c1e565b8151811061071857610717612bc0565b5b602001015160f81c60f81b7effffffffffffffffffffffffffffffffffffffffffffffffffffffffffffff191614610754576000915050610767565b80806001019150506106b0565b50600190505b92915050565b60607fe2e0a67bf65f0fabafcc811e32807d1f624f8e97313826429cc51a41e42f9a0b83836040516107a0929190612c82565b6040518091039020036109095760008085815260200190815260200160002060000160009054906101000a900460ff1661080f576040517f08c379a000000000000000000000000000000000000000000000000000000000815260040161080690612d0d565b60405180910390fd5b60006108fe600080878152602001908152602001600020600201805480602002602001604051908101604052809291908181526020016000905b828210156108f557838290600052602060002001805461086890612911565b80601f016020809104026020016040519081016040528092919081815260200182805461089490612911565b80156108e15780601f106108b6576101008083540402835291602001916108e1565b820191906000526020600020905b8154815290600101906020018083116108c457829003601f168201915b505050505081526020019060010190610849565b50505050611c7d565b905080915050610b21565b60008085815260200190815260200160002060000160009054906101000a900460ff1661096b576040517f08c379a000000000000000000000000000000000000000000000000000000000815260040161096290612d9f565b60405180910390fd5b6000808581526020019081526020016000206003018383600790809261099393929190612dc9565b6040516109a1929190612e29565b908152602001604051809103902060000160009054906101000a900460ff166109ff576040517f08c379a00000000000000000000000000000000000000000000000000000000081526004016109f690612856565b60405180910390fd5b610b1e60008086815260200190815260200160002060030184846007908092610a2a93929190612dc9565b604051610a38929190612e29565b9081526020016040518091039020600101805480602002602001604051908101604052809291908181526020016000905b82821015610b15578382906000526020600020018054610a8890612911565b80601f0160208091040260200160405190810160405280929190818152602001828054610ab490612911565b8015610b015780601f10610ad657610100808354040283529160200191610b01565b820191906000526020600020905b815481529060010190602001808311610ae457829003601f168201915b505050505081526020019060010190610a69565b50505050611c7d565b90505b9392505050565b60008084815260200190815260200160002060000160009054906101000a900460ff16610b8a576040517f08c379a0000000000000000000000000000000000000000000000000000000008152600401610b8190612e8e565b60405180910390fd5b600080600085815260200190815260200160002060030183604051610baf91906127f3565b908152602001604051809103902090508060000160009054906101000a900460ff16610c10576040517f08c379a0000000000000000000000000000000000000000000000000000000008152600401610c0790612856565b60405180910390fd5b8060020160008373ffffffffffffffffffffffffffffffffffffffff1673ffffffffffffffffffffffffffffffffffffffff16815260200190815260200160002060009054906101000a900460ff16610c9e576040517f08c379a0000000000000000000000000000000000000000000000000000000008152600401610c9590612efa565b60405180910390fd5b60008160020160008473ffffffffffffffffffffffffffffffffffffffff1673ffffffffffffffffffffffffffffffffffffffff16815260200190815260200160002060006101000a81548160ff02191690831515021790555060005b8160010180549050811015610e0f5782604051602001610d1b9190612f62565b60405160208183030381529060405280519060200120826001018281548110610d4757610d46612bc0565b5b90600052602060002001604051610d5e9190613015565b604051809103902003610e02578160010160018360010180549050610d83919061302c565b81548110610d9457610d93612bc0565b5b90600052602060002001826001018281548110610db457610db3612bc0565b5b906000526020600020019081610dca919061308b565b5081600101805480610ddf57610dde613173565b5b600190038181906000526020600020016000610dfb9190611d1c565b9055610e0f565b8080600101915050610cfb565b50610e1984610e5d565b50505050565b606060008383604051602001610e369291906131a2565b60405160208183030381529060405290508091505092915050565b60006001905092915050565b6000610f4c600080848152602001908152602001600020600201805480602002602001604051908101604052809291908181526020016000905b82821015610f43578382906000526020600020018054610eb690612911565b80601f0160208091040260200160405190810160405280929190818152602001828054610ee290612911565b8015610f2f5780601f10610f0457610100808354040283529160200191610f2f565b820191906000526020600020905b815481529060010190602001808311610f1257829003601f168201915b505050505081526020019060010190610e97565b50505050611c7d565b9050604051610f5a90613212565b6040518091039020827f448bc014f1536726cf8d54ff3d6481ed3cbc683c2591ca204274009afa09b1a183604051610f92919061324a565b60405180910390a360005b6000808481526020019081526020016000206002018054905081101561122e5760008060008581526020019081526020016000206002018281548110610fe657610fe5612bc0565b5b906000526020600020018054610ffb90612911565b80601f016020809104026020016040519081016040528092919081815260200182805461102790612911565b80156110745780601f1061104957610100808354040283529160200191611074565b820191906000526020600020905b81548152906001019060200180831161105757829003601f168201915b505050505090506000611189600080878152602001908152602001600020600301836040516110a391906127f3565b9081526020016040518091039020600101805480602002602001604051908101604052809291908181526020016000905b828210156111805783829060005260206000200180546110f390612911565b80601f016020809104026020016040519081016040528092919081815260200182805461111f90612911565b801561116c5780601f106111415761010080835404028352916020019161116c565b820191906000526020600020905b81548152906001019060200180831161114f57829003601f168201915b5050505050815260200190600101906110d4565b50505050611c7d565b905060006111cc6040518060400160405280600781526020017f67726f7570732e0000000000000000000000000000000000000000000000000081525084610e1f565b9050806040516111dc91906127f3565b6040518091039020867f448bc014f1536726cf8d54ff3d6481ed3cbc683c2591ca204274009afa09b1a1838560405161121692919061327f565b60405180910390a35050508080600101915050610f9d565b505050565b60008082815260200190815260200160002060000160009054906101000a900460ff1615611296576040517f08c379a000000000000000000000000000000000000000000000000000000000815260040161128d90613302565b60405180910390fd5b600160008083815260200190815260200160002060000160006101000a81548160ff021916908315150217905550600080828152602001908152602001600020600101339080600181540180825580915050600190039060005260206000200160009091909190916101000a81548173ffffffffffffffffffffffffffffffffffffffff021916908373ffffffffffffffffffffffffffffffffffffffff160217905550730635513f179d50a207757e05759cbd106d7dfce873ffffffffffffffffffffffffffffffffffffffff16631896f70a82306040518363ffffffff1660e01b8152600401611389929190613340565b600060405180830381600087803b1580156113a357600080fd5b505af11580156113b7573d6000803e3d6000fd5b505050506113c481610e5d565b50565b600080600090505b8787905081101561142e5760008888838181106113ef576113ee612bc0565b5b9050602002013560001b905061142089898481811061141157611410612bc0565b5b9050602002013560001b611233565b5080806001019150506113cf565b5063bc197c8160e01b905098975050505050505050565b60008083815260200190815260200160002060000160009054906101000a900460ff166114a7576040517f08c379a000000000000000000000000000000000000000000000000000000000815260040161149e906133db565b60405180910390fd5b600080838152602001908152602001600020600301816040516114ca91906127f3565b908152602001604051809103902060000160009054906101000a900460ff1615611529576040517f08c379a000000000000000000000000000000000000000000000000000000000815260040161152090613447565b60405180910390fd5b60016000808481526020019081526020016000206003018260405161154e91906127f3565b908152602001604051809103902060000160006101000a81548160ff021916908315150217905550600080838152602001908152602001600020600201819080600181540180825580915050600190039060005260206000200160009091909190915090816115bd9190612aee565b5060006116ad600080858152602001908152602001600020600201805480602002602001604051908101604052809291908181526020016000905b828210156116a457838290600052602060002001805461161790612911565b80601f016020809104026020016040519081016040528092919081815260200182805461164390612911565b80156116905780601f1061166557610100808354040283529160200191611690565b820191906000526020600020905b81548152906001019060200180831161167357829003601f168201915b5050505050815260200190600101906115f8565b50505050611c7d565b90506040516116bb90613212565b6040518091039020837f448bc014f1536726cf8d54ff3d6481ed3cbc683c2591ca204274009afa09b1a1836040516116f3919061324a565b60405180910390a3505050565b6000808560001b90506000730635513f179d50a207757e05759cbd106d7dfce873ffffffffffffffffffffffffffffffffffffffff166320c38e2b836040518263ffffffff1660e01b81526004016117589190613467565b600060405180830381865afa158015611775573d6000803e3d6000fd5b505050506040513d6000823e3d601f19601f8201168201806040525081019061179e91906134f2565b90506117df816040518060400160405280600681526020017f67726f7570730000000000000000000000000000000000000000000000000000815250610622565b61181e576040517f08c379a0000000000000000000000000000000000000000000000000000000008152600401611815906135ad565b60405180910390fd5b61182a8760001b611233565b63f23a6e6160e01b925050509695505050505050565b600061184a611cf4565b905060008160000160089054906101000a900460ff1615905060008260000160009054906101000a900467ffffffffffffffff1690506000808267ffffffffffffffff161480156118985750825b9050600060018367ffffffffffffffff161480156118cd575060003073ffffffffffffffffffffffffffffffffffffffff163b145b9050811580156118db575080155b15611912576040517ff92ee8a900000000000000000000000000000000000000000000000000000000815260040160405180910390fd5b60018560000160006101000a81548167ffffffffffffffff021916908367ffffffffffffffff16021790555083156119625760018560000160086101000a81548160ff0219169083151502179055505b8560018190555083156119c55760008560000160086101000a81548160ff0219169083151502179055507fc7f505b2f371ae2175ee4913f4499e1f2633a7b5936321eed1cdaeb6115181d260016040516119bc919061361c565b60405180910390a15b505050505050565b60007f01ffc9a7000000000000000000000000000000000000000000000000000000007bffffffffffffffffffffffffffffffffffffffffffffffffffffffff1916827bffffffffffffffffffffffffffffffffffffffffffffffffffffffff1916149050919050565b6060600083905060006002846002611a4f9190613637565b611a599190612c1e565b67ffffffffffffffff811115611a7257611a71611e99565b5b6040519080825280601f01601f191660200182016040528015611aa45781602001600182028036833780820191505090505b5090507f300000000000000000000000000000000000000000000000000000000000000081600081518110611adc57611adb612bc0565b5b60200101907effffffffffffffffffffffffffffffffffffffffffffffffffffffffffffff1916908160001a9053507f780000000000000000000000000000000000000000000000000000000000000081600181518110611b4057611b3f612bc0565b5b60200101907effffffffffffffffffffffffffffffffffffffffffffffffffffffffffffff1916908160001a90535060006001856002611b809190613637565b611b8a9190612c1e565b90505b6001811115611c2a577f3031323334353637383961626364656600000000000000000000000000000000600f841660108110611bcc57611bcb612bc0565b5b1a60f81b828281518110611be357611be2612bc0565b5b60200101907effffffffffffffffffffffffffffffffffffffffffffffffffffffffffffff1916908160001a905350600483901c925080611c2390613679565b9050611b8d565b5060008214611c725784846040517fe22e27eb000000000000000000000000000000000000000000000000000000008152600401611c699291906136a2565b60405180910390fd5b809250505092915050565b6060600060405180602001604052806000815250905060005b8351811015611cea5781848281518110611cb357611cb2612bc0565b5b6020026020010151604051602001611ccc929190613717565b60405160208183030381529060405291508080600101915050611c96565b5080915050919050565b60007ff0c57e16840df040f15088dc2f81fe391c3923bec73e23a9662efc9c229c6a00905090565b508054611d2890612911565b6000825580601f10611d3a5750611d59565b601f016020900490600052602060002090810190611d589190611d5c565b5b50565b5b80821115611d75576000816000905550600101611d5d565b5090565b6000604051905090565b600080fd5b600080fd5b60007fffffffff0000000000000000000000000000000000000000000000000000000082169050919050565b611dc281611d8d565b8114611dcd57600080fd5b50565b600081359050611ddf81611db9565b92915050565b600060208284031215611dfb57611dfa611d83565b5b6000611e0984828501611dd0565b91505092915050565b60008115159050919050565b611e2781611e12565b82525050565b6000602082019050611e426000830184611e1e565b92915050565b6000819050919050565b611e5b81611e48565b8114611e6657600080fd5b50565b600081359050611e7881611e52565b92915050565b600080fd5b600080fd5b6000601f19601f8301169050919050565b7f4e487b7100000000000000000000000000000000000000000000000000000000600052604160045260246000fd5b611ed182611e88565b810181811067ffffffffffffffff82111715611ef057611eef611e99565b5b80604052505050565b6000611f03611d79565b9050611f0f8282611ec8565b919050565b600067ffffffffffffffff821115611f2f57611f2e611e99565b5b611f3882611e88565b9050602081019050919050565b82818337600083830152505050565b6000611f67611f6284611f14565b611ef9565b905082815260208101848484011115611f8357611f82611e83565b5b611f8e848285611f45565b509392505050565b600082601f830112611fab57611faa611e7e565b5b8135611fbb848260208601611f54565b91505092915050565b600073ffffffffffffffffffffffffffffffffffffffff82169050919050565b6000611fef82611fc4565b9050919050565b611fff81611fe4565b811461200a57600080fd5b50565b60008135905061201c81611ff6565b92915050565b60008060006060848603121561203b5761203a611d83565b5b600061204986828701611e69565b935050602084013567ffffffffffffffff81111561206a57612069611d88565b5b61207686828701611f96565b92505060406120878682870161200d565b9150509250925092565b6000819050919050565b6120a481612091565b82525050565b60006020820190506120bf600083018461209b565b92915050565b600067ffffffffffffffff8211156120e0576120df611e99565b5b6120e982611e88565b9050602081019050919050565b6000612109612104846120c5565b611ef9565b90508281526020810184848401111561212557612124611e83565b5b612130848285611f45565b509392505050565b600082601f83011261214d5761214c611e7e565b5b813561215d8482602086016120f6565b91505092915050565b6000806040838503121561217d5761217c611d83565b5b600083013567ffffffffffffffff81111561219b5761219a611d88565b5b6121a785828601612138565b925050602083013567ffffffffffffffff8111156121c8576121c7611d88565b5b6121d485828601612138565b9150509250929050565b600080fd5b600080fd5b60008083601f8401126121fe576121fd611e7e565b5b8235905067ffffffffffffffff81111561221b5761221a6121de565b5b602083019150836001820283011115612237576122366121e3565b5b9250929050565b60008060006040848603121561225757612256611d83565b5b600061226586828701611e69565b935050602084013567ffffffffffffffff81111561228657612285611d88565b5b612292868287016121e8565b92509250509250925092565b600081519050919050565b600082825260208201905092915050565b60005b838110156122d85780820151818401526020810190506122bd565b60008484015250505050565b60006122ef8261229e565b6122f981856122a9565b93506123098185602086016122ba565b61231281611e88565b840191505092915050565b6000602082019050818103600083015261233781846122e4565b905092915050565b6000806040838503121561235657612355611d83565b5b600083013567ffffffffffffffff81111561237457612373611d88565b5b61238085828601611f96565b925050602083013567ffffffffffffffff8111156123a1576123a0611d88565b5b6123ad85828601611f96565b9150509250929050565b600080604083850312156123ce576123cd611d83565b5b60006123dc85828601611e69565b92505060206123ed8582860161200d565b9150509250929050565b60006020828403121561240d5761240c611d83565b5b600061241b84828501611e69565b91505092915050565b60008083601f84011261243a57612439611e7e565b5b8235905067ffffffffffffffff811115612457576124566121de565b5b602083019150836020820283011115612473576124726121e3565b5b9250929050565b60008083601f8401126124905761248f611e7e565b5b8235905067ffffffffffffffff8111156124ad576124ac6121de565b5b6020830191508360018202830111156124c9576124c86121e3565b5b9250929050565b60008060008060008060008060a0898b0312156124f0576124ef611d83565b5b60006124fe8b828c0161200d565b985050602061250f8b828c0161200d565b975050604089013567ffffffffffffffff8111156125305761252f611d88565b5b61253c8b828c01612424565b9650965050606089013567ffffffffffffffff81111561255f5761255e611d88565b5b61256b8b828c01612424565b9450945050608089013567ffffffffffffffff81111561258e5761258d611d88565b5b61259a8b828c0161247a565b92509250509295985092959890939650565b6125b581611d8d565b82525050565b60006020820190506125d060008301846125ac565b92915050565b600080604083850312156125ed576125ec611d83565b5b60006125fb85828601611e69565b925050602083013567ffffffffffffffff81111561261c5761261b611d88565b5b61262885828601611f96565b9150509250929050565b61263b81612091565b811461264657600080fd5b50565b60008135905061265881612632565b92915050565b60008060008060008060a0878903121561267b5761267a611d83565b5b600061268989828a0161200d565b965050602061269a89828a0161200d565b95505060406126ab89828a01612649565b94505060606126bc89828a01612649565b935050608087013567ffffffffffffffff8111156126dd576126dc611d88565b5b6126e989828a0161247a565b92509250509295509295509295565b60006020828403121561270e5761270d611d83565b5b600061271c84828501612649565b91505092915050565b7f41737369676e526f6c653a204170706c69636174696f6e20646f6573206e6f7460008201527f2065786973742e00000000000000000000000000000000000000000000000000602082015250565b60006127816027836122a9565b915061278c82612725565b604082019050919050565b600060208201905081810360008301526127b081612774565b9050919050565b600081905092915050565b60006127cd8261229e565b6127d781856127b7565b93506127e78185602086016122ba565b80840191505092915050565b60006127ff82846127c2565b915081905092915050565b7f526f6c6520646f6573206e6f742065786973742e000000000000000000000000600082015250565b60006128406014836122a9565b915061284b8261280a565b602082019050919050565b6000602082019050818103600083015261286f81612833565b9050919050565b7f5573657220616c72656164792061737369676e656420746f20726f6c652e0000600082015250565b60006128ac601e836122a9565b91506128b782612876565b602082019050919050565b600060208201905081810360008301526128db8161289f565b9050919050565b7f4e487b7100000000000000000000000000000000000000000000000000000000600052602260045260246000fd5b6000600282049050600182168061292957607f821691505b60208210810361293c5761293b6128e2565b5b50919050565b60008190508160005260206000209050919050565b60006020601f8301049050919050565b600082821b905092915050565b6000600883026129a47fffffffffffffffffffffffffffffffffffffffffffffffffffffffffffffffff82612967565b6129ae8683612967565b95508019841693508086168417925050509392505050565b6000819050919050565b60006129eb6129e66129e184612091565b6129c6565b612091565b9050919050565b6000819050919050565b612a05836129d0565b612a19612a11826129f2565b848454612974565b825550505050565b600090565b612a2e612a21565b612a398184846129fc565b505050565b5b81811015612a5d57612a52600082612a26565b600181019050612a3f565b5050565b601f821115612aa257612a7381612942565b612a7c84612957565b81016020851015612a8b578190505b612a9f612a9785612957565b830182612a3e565b50505b505050565b600082821c905092915050565b6000612ac560001984600802612aa7565b1980831691505092915050565b6000612ade8383612ab4565b9150826002028217905092915050565b612af78261229e565b67ffffffffffffffff811115612b1057612b0f611e99565b5b612b1a8254612911565b612b25828285612a61565b600060209050601f831160018114612b585760008415612b46578287015190505b612b508582612ad2565b865550612bb8565b601f198416612b6686612942565b60005b82811015612b8e57848901518255600182019150602085019450602081019050612b69565b86831015612bab5784890151612ba7601f891682612ab4565b8355505b6001600288020188555050505b505050505050565b7f4e487b7100000000000000000000000000000000000000000000000000000000600052603260045260246000fd5b7f4e487b7100000000000000000000000000000000000000000000000000000000600052601160045260246000fd5b6000612c2982612091565b9150612c3483612091565b9250828201905080821115612c4c57612c4b612bef565b5b92915050565b600081905092915050565b6000612c698385612c52565b9350612c76838584611f45565b82840190509392505050565b6000612c8f828486612c5d565b91508190509392505050565b7f546578745265736f6c766572202d2047726f7570733a204170706c696361746960008201527f6f6e20646f6573206e6f742065786973742e0000000000000000000000000000602082015250565b6000612cf76032836122a9565b9150612d0282612c9b565b604082019050919050565b60006020820190508181036000830152612d2681612cea565b9050919050565b7f546578745265736f6c7665723a204170706c69636174696f6e20646f6573206e60008201527f6f742065786973742e0000000000000000000000000000000000000000000000602082015250565b6000612d896029836122a9565b9150612d9482612d2d565b604082019050919050565b60006020820190508181036000830152612db881612d7c565b9050919050565b600080fd5b600080fd5b60008085851115612ddd57612ddc612dbf565b5b83861115612dee57612ded612dc4565b5b6001850283019150848603905094509492505050565b6000612e1083856127b7565b9350612e1d838584611f45565b82840190509392505050565b6000612e36828486612e04565b91508190509392505050565b7f4170706c69636174696f6e20646f6573206e6f742065786973742e0000000000600082015250565b6000612e78601b836122a9565b9150612e8382612e42565b602082019050919050565b60006020820190508181036000830152612ea781612e6b565b9050919050565b7f55736572206e6f7420696e20726f6c652e000000000000000000000000000000600082015250565b6000612ee46011836122a9565b9150612eef82612eae565b602082019050919050565b60006020820190508181036000830152612f1381612ed7565b9050919050565b60008160601b9050919050565b6000612f3282612f1a565b9050919050565b6000612f4482612f27565b9050919050565b612f5c612f5782611fe4565b612f39565b82525050565b6000612f6e8284612f4b565b60148201915081905092915050565b60008190508160005260206000209050919050565b60008154612f9f81612911565b612fa98186612c52565b94506001821660008114612fc45760018114612fd95761300c565b60ff198316865281151582028601935061300c565b612fe285612f7d565b60005b8381101561300457815481890152600182019150602081019050612fe5565b838801955050505b50505092915050565b60006130218284612f92565b915081905092915050565b600061303782612091565b915061304283612091565b925082820390508181111561305a57613059612bef565b5b92915050565b60008154905061306f81612911565b9050919050565b60008190508160005260206000209050919050565b818103613099575050613171565b6130a282613060565b67ffffffffffffffff8111156130bb576130ba611e99565b5b6130c58254612911565b6130d0828285612a61565b6000601f8311600181146130ff57600084156130ed578287015490505b6130f78582612ad2565b86555061316a565b601f19841661310d87613076565b965061311886612942565b60005b828110156131405784890154825560018201915060018501945060208101905061311b565b8683101561315d5784890154613159601f891682612ab4565b8355505b6001600288020188555050505b5050505050505b565b7f4e487b7100000000000000000000000000000000000000000000000000000000600052603160045260246000fd5b60006131ae82856127c2565b91506131ba82846127c2565b91508190509392505050565b7f67726f7570730000000000000000000000000000000000000000000000000000600082015250565b60006131fc6006836127b7565b9150613207826131c6565b600682019050919050565b600061321d826131ef565b9150819050919050565b60006132346006836122a9565b915061323f826131c6565b602082019050919050565b6000604082019050818103600083015261326381613227565b9050818103602083015261327781846122e4565b905092915050565b6000604082019050818103600083015261329981856122e4565b905081810360208301526132ad81846122e4565b90509392505050565b7f4170706c69636174696f6e20616c726561647920726567697374657265642e00600082015250565b60006132ec601f836122a9565b91506132f7826132b6565b602082019050919050565b6000602082019050818103600083015261331b816132df565b9050919050565b61332b81611e48565b82525050565b61333a81611fe4565b82525050565b60006040820190506133556000830185613322565b6133626020830184613331565b9392505050565b7f5265676973746572526f6c653a204170706c69636174696f6e20646f6573206e60008201527f6f74206578697374000000000000000000000000000000000000000000000000602082015250565b60006133c56028836122a9565b91506133d082613369565b604082019050919050565b600060208201905081810360008301526133f4816133b8565b9050919050565b7f526f6c6520616c7265616479206578697374732e000000000000000000000000600082015250565b60006134316014836122a9565b915061343c826133fb565b602082019050919050565b6000602082019050818103600083015261346081613424565b9050919050565b600060208201905061347c6000830184613322565b92915050565b6000613495613490846120c5565b611ef9565b9050828152602081018484840111156134b1576134b0611e83565b5b6134bc8482856122ba565b509392505050565b600082601f8301126134d9576134d8611e7e565b5b81516134e9848260208601613482565b91505092915050565b60006020828403121561350857613507611d83565b5b600082015167ffffffffffffffff81111561352657613525611d88565b5b613532848285016134c4565b91505092915050565b7f537562646f6d61696e206d7573742073746172742077697468202767726f757060008201527f7327000000000000000000000000000000000000000000000000000000000000602082015250565b60006135976022836122a9565b91506135a28261353b565b604082019050919050565b600060208201905081810360008301526135c68161358a565b9050919050565b6000819050919050565b600067ffffffffffffffff82169050919050565b60006136066136016135fc846135cd565b6129c6565b6135d7565b9050919050565b613616816135eb565b82525050565b6000602082019050613631600083018461360d565b92915050565b600061364282612091565b915061364d83612091565b925082820261365b81612091565b9150828204841483151761367257613671612bef565b5b5092915050565b600061368482612091565b91506000820361369757613696612bef565b5b600182039050919050565b60006040820190506136b7600083018561209b565b6136c4602083018461209b565b9392505050565b7f2000000000000000000000000000000000000000000000000000000000000000600082015250565b60006137016001836127b7565b915061370c826136cb565b600182019050919050565b600061372382856127c2565b915061372f82846127c2565b915061373a826136f4565b9150819050939250505056fea2646970667358221220643849dad80e3714a61a83eed0ecedd564d9ac1c9944a49de1a31f35ba0b77c664736f6c63430008180033",
  "linkReferences": {},
  "deployedLinkReferences": {}
}